{
  "_format": "hh-sol-artifact-1",
  "contractName": "UnderOverFlowDemo",
  "sourceName": "contracts/UnderOverFlowDemo.sol",
  "abi": [
    {
      "inputs": [
        {
          "internalType": "address",
          "name": "",
          "type": "address"
        }
      ],
      "name": "balances",
      "outputs": [
        {
          "internalType": "uint256",
          "name": "",
          "type": "uint256"
        }
      ],
      "stateMutability": "view",
      "type": "function"
    },
    {
      "inputs": [],
      "name": "deposit",
      "outputs": [],
      "stateMutability": "payable",
      "type": "function"
    },
    {
      "inputs": [
        {
          "internalType": "address",
          "name": "_to",
          "type": "address"
        },
        {
          "internalType": "uint256",
          "name": "_value",
          "type": "uint256"
        }
      ],
      "name": "transfer",
      "outputs": [],
      "stateMutability": "nonpayable",
      "type": "function"
    }
  ],
  "bytecode": "0x608060405234801561001057600080fd5b506104d6806100206000396000f3fe6080604052600436106100345760003560e01c806327e235e314610039578063a9059cbb14610076578063d0e30db01461009f575b600080fd5b34801561004557600080fd5b50610060600480360381019061005b9190610271565b6100a9565b60405161006d9190610328565b60405180910390f35b34801561008257600080fd5b5061009d6004803603810190610098919061029a565b6100c1565b005b6100a76101f0565b005b60006020528060005260406000206000915090505481565b806000803373ffffffffffffffffffffffffffffffffffffffff1673ffffffffffffffffffffffffffffffffffffffff168152602001908152602001600020541015610142576040517f08c379a000000000000000000000000000000000000000000000000000000000815260040161013990610308565b60405180910390fd5b806000803373ffffffffffffffffffffffffffffffffffffffff1673ffffffffffffffffffffffffffffffffffffffff168152602001908152602001600020600082825461019091906103aa565b92505081905550806000808473ffffffffffffffffffffffffffffffffffffffff1673ffffffffffffffffffffffffffffffffffffffff16815260200190815260200160002060008282546101e59190610354565b925050819055505050565b346000803373ffffffffffffffffffffffffffffffffffffffff1673ffffffffffffffffffffffffffffffffffffffff168152602001908152602001600020600082825461023e9190610354565b92505081905550565b60008135905061025681610472565b92915050565b60008135905061026b81610489565b92915050565b60006020828403121561028357600080fd5b600061029184828501610247565b91505092915050565b600080604083850312156102ad57600080fd5b60006102bb85828601610247565b92505060206102cc8582860161025c565b9150509250929050565b60006102e3601483610343565b91506102ee82610449565b602082019050919050565b61030281610410565b82525050565b60006020820190508181036000830152610321816102d6565b9050919050565b600060208201905061033d60008301846102f9565b92915050565b600082825260208201905092915050565b600061035f82610410565b915061036a83610410565b9250827fffffffffffffffffffffffffffffffffffffffffffffffffffffffffffffffff0382111561039f5761039e61041a565b5b828201905092915050565b60006103b582610410565b91506103c083610410565b9250828210156103d3576103d261041a565b5b828203905092915050565b60006103e9826103f0565b9050919050565b600073ffffffffffffffffffffffffffffffffffffffff82169050919050565b6000819050919050565b7f4e487b7100000000000000000000000000000000000000000000000000000000600052601160045260246000fd5b7f496e73756666696369656e742062616c616e6365000000000000000000000000600082015250565b61047b816103de565b811461048657600080fd5b50565b61049281610410565b811461049d57600080fd5b5056fea2646970667358221220bb9dbbc90c58831507e54b68aa6f25c4222afea77b9f28ca6627af94e6a3854264736f6c63430008040033",
  "linkReferences": {},
  "deployedLinkReferences": {}
}